:100000000C942A010C9452010C9452010C9452014C
:100010000C9452010C9452010C9452010C94520114
:100020000C9452010C9452010C9452010C94520104
:100030000C9452010C9452010C9452010C945201F4
:100040000C9463070C9452010C94D3070C94AD07E5
:100050000C9452010C9452010C9452010C945201D4
:100060000C9452010C94520150415F4D4158005084
:10007000415F484947480050415F4C4F570050414D
:100080005F4D494E0031362062697473003820623A
:100090006974730044697361626C6564006E5246F2
:1000A00032344C30312B006E524632344C303100F9
:1000B0003235304B42505300324D42505300314D97
:1000C000425053005354415455530909203D2030A8
:1000D00078253032782052585F44523D257820549C
:1000E000585F44533D2578204D41585F52543D257B
:1000F000782052585F505F4E4F3D25782054585F0E
:1001000046554C4C3D25780D0A00504120506F77E4
:10011000657209203D2025530D0A007E0077006F8F
:10012000006800435243204C656E67746809203DA7
:100130002025530D0A0094008D0085004D6F6465E5
:100140006C0909203D2025530D0A00A7009D00449D
:10015000617461205261746509203D2025530D0AA8
:1001600000BE00B800B00044594E50442F464541EF
:100170005455524500434F4E464947090052465F89
:1001800053455455500052465F43480900454E5F61
:1001900052584144445200454E5F41410900525873
:1001A0005F50575F50302D360054585F41444452E1
:1001B000090052585F414444525F50322D3500527D
:1001C000585F414444525F50302D31000A0B0C0DF2
:1001D0000E0F0000000800020100000304070000E9
:1001E00000000000000000000000250028002B0097
:1001F00000000000240027002A0004040404040472
:1002000004040202020202020303030303030102C5
:100210000408102040800102040810200102040894
:1002200010200001020304051112131415160D0A03
:1002300000253032780020307800255309203D0019
:100240000D0A002030782530327800255309203DF2
:100250000000050811241FBECFEFD8E0DEBFCDBFE0
:1002600012E0A0E0B1E0EAE2F6E202C005900D92F1
:10027000A23AB107D9F723E0A2EAB2E001C01D9289
:10028000A639B207E1F711E0CAE2D1E004C0219734
:10029000FE010E940413C932D107C9F70E943F082A
:1002A0000C9413130C94000090E0FC01E25FFD4FEE
:1002B000249186509E4FFC018491882399F090E010
:1002C000880F991FFC01E051FE4FA591B491FC01EC
:1002D000EA51FE4F859194918FB7F894EC91E22BFF
:1002E000EC938FBF089590E0FC01EE52FE4F2491F5
:1002F000FC01E25FFD4F3491FC01E650FE4FE491BA
:10030000EE23C9F0222339F0233001F1A8F4213083
:1003100019F1223029F1F0E0EE0FFF1FEA51FE4FF4
:10032000A591B4918FB7F894EC91611126C03095E6
:100330003E233C938FBF08952730A9F02830C9F0A1
:10034000243049F7809180008F7D03C08091800028
:100350008F7780938000DFCF84B58F7784BDDBCF2C
:1003600084B58F7DFBCF8091B0008F778093B000F4
:10037000D2CF8091B0008F7DF9CF3E2BDACF9CB5E4
:100380009F7D9CBD9CB5937F9CBD9CB59C7F9CBD77
:100390009DB591609DBD682F80917B030E94730184
:1003A0008FE090E00197F1F7089581E00C94BF0190
:1003B00080E00C94BF01682F80917A0390917B03B9
:1003C00089130C94730108953FB7F8948091D90272
:1003D0009091DA02A091DB02B091DC0226B5A89BD5
:1003E00005C02F3F19F00196A11DB11D3FBFBA2FC7
:1003F000A92F982F8827BC01CD01620F711D811D87
:10040000911D42E0660F771F881F991F4A95D1F70B
:1004100008958F929F92AF92BF92CF92DF92EF9208
:10042000FF926B017C010E94E4014B015C01C1144D
:10043000D104E104F104B9F00E94E40168197909DA
:100440008A099B09683E73408105910580F321E08C
:10045000C21AD108E108F10888EE880E83E0981EE0
:10046000A11CB11CE4CFFF90EF90DF90CF90BF9024
:10047000AF909F908F900895AF92BF92CF92DF92EE
:10048000EF92FF920F931F93CF93DF936C017B0149
:100490008B01040F151FEB015E01AE18BF08C017DA
:1004A000D10759F06991D601ED91FC910190F0814D
:1004B000E02DC6010995892B79F7C501DF91CF9110
:1004C0001F910F91FF90EF90DF90CF90BF90AF9072
:1004D0000895FC01538D448D252F30E0842F90E04A
:1004E000821B930B541710F0CF960895019708952F
:1004F000FC01918D828D981761F0A28DAE0FBF2FF8
:10050000B11D5D968C91928D9F5F9F73928F90E04D
:1005100008958FEF9FEF0895FC01918D828D9817BC
:1005200031F0828DE80FF11D858D90E008958FEFF9
:100530009FEF0895FC01918D228D892F90E0805CC2
:100540009F4F821B91098F73992708958DED92E03B
:100550000E949A0221E0892B09F420E0822F08955D
:1005600080E090E0892B29F00E94A60281110C9472
:1005700000000895FC01A48DA80FB92FB11DA35A46
:10058000BF4F2C91848D90E001968F739927848FB3
:10059000A689B7892C93A089B1898C9183708064D6
:1005A0008C93938D848D981306C00288F389E02D77
:1005B00080818F7D80830895EF92FF920F931F9328
:1005C000CF93DF93EC0181E0888F9B8D8C8D981306
:1005D0001AC0E889F989808185FF15C09FB7F89412
:1005E000EE89FF896083E889F9898081837080645E
:1005F00080839FBF81E090E0DF91CF911F910F91A9
:10060000FF90EF900895F62E0B8D10E00F5F1F4FB7
:100610000F731127E02E8C8D8E110CC00FB607FCC6
:10062000FACFE889F989808185FFF5CFCE010E9454
:10063000BA02F1CFEB8DEC0FFD2FF11DE35AFF4F06
:10064000F0829FB7F8940B8FEA89FB8980818062E2
:10065000CFCFCF93DF93EC01888D8823B9F0AA899F
:10066000BB89E889F9898C9185FD03C0808186FD6D
:100670000DC00FB607FCF7CF8C9185FFF2CF8081BC
:1006800085FFEDCFCE010E94BA02E9CFDF91CF9175
:1006900008958091C8028150990BE8EAF2E02FEFAB
:1006A000AF01485A5240481759071CF43191231B97
:1006B000F7CF88559D4F2F5FFC012083089520912F
:1006C000C8022150330BF901E855FD4F1082A8EA0A
:1006D000B2E08081AD01485A52404217530724F4DA
:1006E0009D9189278083F5CF8095808308955F92BF
:1006F0006F927F928F929F92AF92BF92CF92DF9232
:10070000EF92FF920F931F93CF93DF93E090C80275
:10071000F12C5090C9026090CA027090CB02809078
:10072000CC029090CD02C090CE02D090CF0210911A
:10073000D002E8EAF2E0C4E0D0E095E0A92EB12CC6
:10074000CE15DF05ECF4CF01885A9240B5010E9426
:100750007B12DC0183E0AA0FBB1F8A95E1F7252DF0
:10076000362D472D582D692D7C2D8D2D912F0A2F3B
:100770000E94CC1284812827248321963196E0CFD1
:10078000DF91CF911F910F91FF90EF90DF90CF906D
:10079000BF90AF909F908F907F906F905F900895E3
:1007A000CF93C82F682F8DED92E00E94DC028C2F32
:1007B000CC0F990BCF9108958EBD00000DB407FEAC
:1007C000FDCF8EB50895CF93C82F0E94D8018C2FEE
:1007D0000E94DC03C82F0E94D5018C2FCF91089571
:1007E00081EE0C94E303CF93DF93C82FD62F0E94A2
:1007F000D8018C2F8F7180620E94DC03C82F8D2F4F
:100800000E94DC030E94D5018C2FDF91CF910895C7
:100810008D3708F08DE7682F85E00C94F303CF93B4
:10082000C82F0E94D8018C2F8F710E94DC038FEF9C
:100830000E94DC03C82F0E94D5018C2FCF91089510
:1008400080E00E940F0481FD0BC0682F626080E091
:100850000E94F30365E070E080E090E00C940902F0
:100860000895CF93DF93C82FD0E0FE01E85DFD4FE0
:10087000849160917F030E94F30382E00E940F0441
:10088000FE01EE5DFD4FE49161E070E001C0660F96
:10089000EA95EAF7682B82E0DF91CF910C94F3039D
:1008A0000F931F93CF938C0186E00E940F04C82FF3
:1008B000C77D02301105E1F4C0628BE990E0A0E051
:1008C000B0E08093870390938803A0938903B0934B
:1008D0008A036C2F86E00E94F30386E00E940F04D7
:1008E00091E0C81390E0892FCF911F910F91089547
:1008F00085E590E0A0E0B0E00130110511F7C86097
:1009000081E490E0A0E0B0E0DCCFEF92FF920F93A3
:100910001F93CF93DF93C82F7B01142F0E94D80120
:100920008C2F8F7180620E94DC03082FE701115029
:1009300020F089910E94DC03FACF0E94D501802F1C
:10094000DF91CF911F910F91FF90EF900895CF937A
:10095000DF93C82FD62F60E088E00E9473018C2FB0
:1009600080620E94DC03C82F8D2F0E94DC0361E0AF
:1009700088E00E9473018C2FDF91CF910895FC01D4
:1009800001900020E9F73197AF01481B590BBC01DA
:100990008DED92E00C943C028F929F92AF92BF92A9
:1009A0000F931F93CF93DF93CDB7DEB7A1970FB609
:1009B000F894DEBF0FBECDBF19A2423008F44AE062
:1009C0008E010F5D1F4F842E912CB12CA12CA501FF
:1009D00094010E948F12E62FB901CA01EA30F4F4A3
:1009E000E05DD801EE938D01232B242B252B79F785
:1009F00090E080E0109719F0CD010E94BF04A1960D
:100A00000FB6F894DEBF0FBECDBFDF91CF911F911F
:100A10000F91BF90AF909F908F900895E95CE1CFC8
:100A2000CF93DF930E94BF04EC0181E991E00E9423
:100A3000BF048C0F9D1FDF91CF9108950C94BF04CC
:100A4000CF93DF93682F70E090E080E04AE00E944F
:100A5000CC04EC0181E991E00E94BF048C0F9D1F42
:100A6000DF91CF9108950F93CF93DF9384E991E0C5
:100A70000E941E056091000170E090E080E04AE075
:100A80000E94CC0489E991E00E941E056091C80291
:100A900070E090E080E04AE00E94CC048EE991E0B2
:100AA0000E941E05D0E0C0E02091C9023091CA0228
:100AB0004091CB025091CC026091CD027091CE0258
:100AC0008091CF029091D0020C2F0E94CC12622F05
:100AD00070E090E080E040E10E94CC048CEE91E078
:100AE0000E941E052896C832D105F1F683EA91E0EE
:100AF0000E941E05C8EAD2E02091C802CE01885AA1
:100B000092402817190669F064F0699170E090E04E
:100B100080E040E10E94CC048CEE91E00E941E0532
:100B2000EBCF83E991E0DF91CF910F910C94100509
:100B30000F931F93CF93DF930E943305C0917F03E0
:100B4000D091C802CD1708F4DC2F80918003CD1B13
:100B50008111C0E00E94D80180EA0E94DC0308EA0B
:100B600012E0D15030F0F80181918F010E94DC0336
:100B7000F8CFC15020F080E00E94DC03FACF0E9441
:100B8000D50181E00E94DB018FEF0E94E3038073B7
:100B9000D9F380E00E94DB0160E787E00E94F30365
:100BA00084FD0E94F00381E0DF91CF911F910F91AE
:100BB00008959AE09093C802E8EAF2E09F01285A6B
:100BC00032402A30310514F41192F8CF91EC909311
:100BD000A9028093AA02DB01E8EAF2E050E0CF012B
:100BE000885A92408417950724F48D918383319617
:100BF000F6CF0E9449030E94980565E070E080E00E
:100C000090E00E9409021092AA021092AB02109288
:100C1000AC021092AD021092AE021092AF0210928E
:100C2000B0020E9449030E94980565E070E080E0F0
:100C300090E00C940902FF920F931F93CF93DF93E0
:100C4000F82ED62FC091A702C1110E947703809180
:100C5000C80290E00CEA12E0F8019F01285A3240E5
:100C60002817390714F41192F8CF9091D10280918E
:100C7000D2029093AC028093AD0283E48093AE02E3
:100C8000F092AF02D093B1020E945F03C1110E94A3
:100C900077030E94980565E070E080E090E00E9494
:100CA0000902C091D102D091D2022196D093D202F2
:100CB000C093D102F090A702F1100E9477038091B7
:100CC000C80290E09801285A32402817390724F4C6
:100CD000F80111928F01F6CFC093AC02D093AD0210
:100CE00083E48093AE020E945F03F1100E947703B9
:100CF0000E94980565E070E080E090E00E940902A3
:100D00008091D1029091D20201969093D202809369
:100D1000D102DF91CF911F910F91FF900895FF9223
:100D20000F931F93CF93DF93C62FD42F9F938F934F
:100D30008BE492E09F938F930E94590EDC0F0F90EB
:100D40000F900F900F9003E412E0CD1791F0FF2465
:100D5000F394FC0E8C2F0E940F041F928F931F930D
:100D60000F930E94590E0F900F900F900F90CF2D60
:100D7000ECCF80E492E09F938F930E94590E0F90E6
:100D80000F90DF91CF911F910F91FF9008952F92B7
:100D90003F924F925F926F927F928F929F92AF920B
:100DA000BF92CF92DF92EF92FF920F931F93CF9358
:100DB000DF931F92CDB7DEB7962E342E4DB65EB6BA
:100DC0009F938F938AE392E09F938F930E94590E93
:100DD000390C0F900F900F900F9086E3C82E82E091
:100DE000D82E91E3A92E92E0B92E931409F44AC0AB
:100DF0006DB67EB620908603022D10E08DB79EB7AB
:100E0000801B910B0FB6F8949EBF0FBE8DBFEDB740
:100E1000FEB731967F01F1E0F90DF9830E94D80108
:100E2000892D8F710E94DC0347012A948FEF2816C9
:100E300031F00E94DC03F40181934F01F6CF0E9450
:100E4000D501DF92CF920E94590E0E0D1F1D0F90FB
:100E50000F90015011090E151F0568F0F8018081EF
:100E60001F928F93BF92AF920E94590E0F900F90D6
:100E70000F900F90EECF0FB6F8947EBE0FBE6DBEF2
:100E80009980B3CF8EE292E09F938F930E94590E88
:100E90000F900F900FB6F8945EBE0FBE4DBE0F9030
:100EA000DF91CF911F910F91FF90EF90DF90CF9046
:100EB000BF90AF909F908F907F906F905F904F907A
:100EC0003F902F9008951F920F920FB60F9211240A
:100ED0002F933F938F939F93AF93BF938091D502AE
:100EE0009091D602A091D702B091D8023091D4024D
:100EF00023E0230F2D3758F50196A11DB11D209336
:100F0000D4028093D5029093D602A093D702B093D7
:100F1000D8028091D9029091DA02A091DB02B091BF
:100F2000DC020196A11DB11D8093D9029093DA02D3
:100F3000A093DB02B093DC02BF91AF919F918F91A0
:100F40003F912F910F900FBE0F901F90189526E89C
:100F5000230F0296A11DB11DD2CF1F920F920FB683
:100F60000F9211242F933F934F935F936F937F932F
:100F70008F939F93AF93BF93EF93FF938DED92E089
:100F80000E94BA02FF91EF91BF91AF919F918F9113
:100F90007F916F915F914F913F912F910F900FBE75
:100FA0000F901F9018951F920F920FB60F92112459
:100FB0002F938F939F93EF93FF93E091ED02F09126
:100FC000EE028081E091F302F091F40282FD1BC0F9
:100FD00090818091F6028F5F8F732091F7028217C4
:100FE00041F0E091F602F0E0E352FD4F958F8093DF
:100FF000F602FF91EF919F918F912F910F900FBE6D
:101000000F901F9018958081F4CFEDEDF2E01382E0
:10101000128288EE93E0A0E0B0E084839583A683FB
:10102000B78383E891E09183808385EC90E0958796
:10103000848784EC90E09787868780EC90E0918BA2
:10104000808B81EC90E0938B828B82EC90E0958B8F
:10105000848B86EC90E0978B868B118E128E138E8C
:10106000148EEAE7F3E087E0808388E081831482CE
:1010700080E28583168285E0848717820895CF9366
:10108000DF93CDB7DEB7EE970FB6F894DEBF0FBE95
:10109000CDBF789484B5826084BD84B5816084BD01
:1010A00085B5826085BD85B5816085BD80916E0006
:1010B000816080936E001092810080918100826037
:1010C0008093810080918100816080938100809174
:1010D00080008160809380008091B1008460809363
:1010E000B1008091B00081608093B00080917A005F
:1010F000846080937A0080917A00826080937A0085
:1011000080917A00816080937A0080917A00806873
:1011100080937A001092C100E091ED02F091EE020E
:1011200082E08083E091E902F091EA021082E0918E
:10113000EB02F091EC028FEC80831092F502E091CB
:10114000F102F091F20286E08083E091EF02F091EB
:10115000F002808180618083E091EF02F091F002E3
:10116000808188608083E091EF02F091F0028081BD
:1011700080688083E091EF02F091F00280818F7DA2
:10118000808370E060E080ED93E00E940E0E8DE0C1
:101190000E94540160E08DE00E9473012224239498
:1011A000312C1092D3021092A7021092C80288EC40
:1011B00092E0E8EAF2E011928E179F07E1F7809142
:1011C0007A0390917B0389130E94540180917B03E1
:1011D00090917A0398130E9454011FB7F89480915C
:1011E000A202811124C0E4E0F2E08491E8E1F2E09F
:1011F0009491E82FF0E0EE0FFF1FE051FE4FA59114
:10120000B491EC91E92321F461E08AE00E9473013A
:101210008AE00E9454018CB580618CBD8CB58064DD
:101220008CBD8DE00E9454018BE00E94540180919E
:10123000A2028F5F8093A2021FBF80E00E94DB01A9
:1012400081E00E94BF0165E070E080E090E00E94D4
:1012500009026CE080E00E94F3036FE584E00E94E5
:10126000F30382E090E00E945004882319F081E0AB
:1012700080937E0386E00E940F0490E080E00E944D
:1012800050040E94D80180E50E94DC0383E70E949D
:10129000DC030E94D50160E08DE10E94F30360E071
:1012A0008CE10E94F30360E787E00E94F3038CE483
:1012B0000E94080482EE0E94E3030E94F0030E9451
:1012C000200480E00E940F04682F6E7F80E00E945F
:1012D000F30388EA91E00E94100560E081E00E943B
:1012E000F30369E086E00E94A70480E280937F0315
:1012F000809100010E94080460E082E00E94A7043F
:1013000060E083E00E94A7048AEA8EAB1FAA18AEB1
:1013100019AE1AAE1BAE1CAE1DAE4091860350E056
:10132000BE016A5C7F4F81E893E00E940A13ECECF7
:10133000F1E0849140918603BE016A5C7F4F0E9478
:10134000850480E00E94310480E00E940F04682F31
:10135000677F80E00E94F3030E94200480E00E94E7
:101360000F04682F616080E00E94F30360E787E06C
:101370000E94F30381E00E94DB01809181038823B6
:1013800009F458C14091860361E873E08AE00E9445
:1013900085048DE10E940F0481FD0E94F0038FEF10
:1013A0000E94E303282F30E0982F91701F929F93A3
:1013B000A90155954795477055275F934F9384FB37
:1013C000992790F91F929F9385FB992790F91F9277
:1013D0009F9386FB222720F91F922F931F928F93B2
:1013E00084EC90E09F938F930E94590E42E06AE054
:1013F0008FEB91E00E94C70644E06CE082EB91E045
:101400000E948F0641E060E189EA91E00E94C706F0
:1014100046E061E18EE991E00E948F0641E061E0E3
:1014200087E991E00E948F0641E062E08DE891E05B
:101430000E948F0641E065E086E891E00E948F06F9
:1014400041E066E08DE791E00E948F0641E060E0B8
:1014500085E791E00E948F0642E06CE187E691E02B
:101460000E948F0686E00E940F0488720FB6F894DF
:10147000DEBF0FBECDBFE2E0F0E0803239F021E008
:1014800090E0883009F020E0E22FF92FEE0FFF1FE7
:10149000EF59FE4F859194919F938F938FE491E044
:1014A0009F938F930E94590EE0917E03F0E0EE0F20
:1014B000FF1FE55BFE4F859194919F938F938CE383
:1014C00091E09F938F930E94590E80E00E940F0439
:1014D000182F81E00E940F040FB6F894DEBF0FBEF4
:1014E000CDBF13FD04C0F0E0E0E0882331F0E2E07E
:1014F000F0E012FD02C0E1E0F0E0EE0FFF1FEA5C59
:10150000FE4F859194919F938F9383E291E09F93F7
:101510008F930E94590E86E00E940F04E82FF0E09E
:10152000F595E795E370F0E0EE0FFF1FE55EFE4FE7
:10153000859194919F938F938AE091E09F938F93ED
:101540000E94590E0FB6F894DEBF0FBECDBF82E0E9
:10155000F82E809100018F5F80930001853550F057
:1015600089EB91E00E94100561E08DE00E9473011B
:10157000F092000110910001143009F06DC060E09C
:101580008DE00E947301812F0E9408042FB7F89408
:101590008091D5029091D602A091D702B091D80245
:1015A0002FBF8093A3029093A402A093A502B093AF
:1015B000A6022FB7F8948091D5029091D602A091FF
:1015C000D702B091D8022FBF4091A3025091A4023C
:1015D0006091A5027091A602841B950BA60BB70B18
:1015E00084369105A105B10508F0B3CF87E10E94CB
:1015F0000F0480FDDECF10917F0305E2153208F461
:10160000012F80918003101B811110E00E94D801EE
:1016100081E60E94DC039E012F5F3F4F29014901B3
:101620003901015008F18FEF0E94DC03D4018D9342
:101630004D01F7CF82E00E940F04E2E2F2E0E49174
:10164000910101C0220FEA95EAF72095622F6823E5
:1016500082E00E94F3039DCE1A3211F461E090CF34
:101660001C3209F090CF8BCF115020F08FEF0E94E9
:10167000DC03FACF0E94D50160E787E00E94F30304
:1016800010E000E08E80912C959487949594879437
:101690008EAE982D983108F0D0C1E7E0F0E0EC0F65
:1016A000FD1FE80DF91D2081E8E0F0E0EC0FFD1FC3
:1016B000E80DF91D808190E0880F991F422F50E0BE
:1016C000542F4427550F842B952B9827892798272B
:1016D000E9E0F0E0EC0FFD1FE80DF91D308137FD6A
:1016E0009160F2014FEF5FEFB4016B5F7F4FDF015D
:1016F000A419B5096A177B07ACF03191532739E07B
:101700003150A9F3DA01440F551FB7FFF9CFA1E219
:101710004A27A0E15A27F4CF898190E095958795D3
:101720008983A1C1207830E0322F22272427352752
:10173000A901440F551F37FF04C0B1E24B27B0E1A8
:101740005B275427452754274817590709F075C1C7
:1017500080ED91E00E941E05EEADEE2309F469C113
:101760008EEE91E00E941E058EAD0E942005F201D2
:101770003496A12CB12CC12CD12CE12CF12C00E001
:1017800010E0D2012D912D0130E040E050E060E00A
:1017900070E080E090E00E94E71208E00E94B11241
:1017A00059016A017B018C01EA17FB0751F72D8172
:1017B00030E040E050E060E070E080E090E00E94C7
:1017C000E7122093C9023093CA024093CB02509390
:1017D000CC026093CD027093CE028093CF0290939F
:1017E000D002DE011796E8EAF2E022E0820E911CB8
:1017F000CF01885A9240881699064CF08D919C91A1
:10180000991F9927991F880F892B8193F1CF3EAD9E
:101810003093C8020E9433058091C8029091A802BB
:10182000833109F033C1983009F024C18091AE02B0
:10183000803439F48FE192E00E94100581E08093BA
:10184000D3028CE592E00E9410058091D302882398
:1018500009F49CC18CE692E00E94100561E08DE0E5
:101860000E94730180E00E94DB01809187039091C8
:1018700088038230910538F0880F991F880F991FCF
:1018800005970197F1F78DE10E940F0481FF10C0C9
:1018900080918703909188038230910538F0880FFA
:1018A000991F880F991F05970197F1F70E94F00380
:1018B00080E00E940F04682F6E7F80E00E94F30397
:1018C00082E00E940F04E2E2F2E0E491B10101C083
:1018D000660FEA95EAF7682B82E00E94F303A09076
:1018E000C902B090CA02C090CB02D090CC02E09066
:1018F000CD02F090CE020091CF021091D002AEA2A4
:10190000BFA2C8A6D9A6EAA6FBA60CA71DA7409110
:101910008603BE016A5D7F4F8AE00E948504409184
:101920008603BE016A5D7F4F80E10E94850460915D
:101930007F0381E10E94F303AEA6BFA6C8AAD9AA7D
:10194000EAAAFBAA0CAB1DABEDECF1E0849140914F
:101950008603BE01625D7F4F0E94850481E00E9484
:1019600031046FE381E00E94F30386E00E940F04DC
:10197000682F676086E00E94F30381E090E00E9498
:10198000500480E280937F038DE10E940F04682F52
:1019900064608DE10E94F3038CE10E940F04682FC4
:1019A0006F638CE10E94F30381E08093800363E026
:1019B00083E00E94A7046FE584E00E94F303809116
:1019C00000010E9408041092D2021092D10280916C
:1019D000D302813049F406E010E060E080E00E942C
:1019E0001B0601501109C9F787E0482E81E0582EE7
:1019F00010E0912C812CD201FC9011960C91119742
:101A00001296EC908091D302823009F08FC0FF20B3
:101A100009F464C0112329F0412FB30180E00E9432
:101A2000D905098341E0B3018F2D0E94D90510E04B
:101A30007DC081E092E00E9410050130110509F49B
:101A4000B8CDF2012FE130E001E010E021153105C1
:101A500009F462CE868DB0E88B9FA0011124878D9A
:101A60008695842B878F2150310931972F3F32077C
:101A700069F708CE9A3051F48EE292E00E94100588
:101A800081E08093D3028093A702DBCE9111D9CE5F
:101A90008A3071F48091A902823C11F08F3489F46C
:101AA00082E08093D30287E492E00E941005C9CEC1
:101AB000863169F48091A902833D19F482E0809314
:101AC000D3028091D302823009F0BBCEECCF8530B7
:101AD000C1F78091A9028034A1F7F0CF002309F467
:101AE0007CC087E992E00E941E05802F0E9420059D
:101AF000F30120E0812F90E0AF0146195709481704
:101B000059072CF431910313F7CF21E0F5CF2223AD
:101B100009F449C0412FB30180E00E94D90509832F
:101B200011E0B8E28B16910409F451C08091D30200
:101B30008130E9F4002359F08FE892E00E941E05FD
:101B4000802F0E942005602F8F2D0E941B06EE2003
:101B500071F087E892E00E94100530E1E39EB00149
:101B60001124072E000C880B990B0E9409028FEF9D
:101B7000881A980A93E0490E511CA9E28A1691042A
:101B800009F039CF60E08DE00E94730180E090E0C1
:101B9000892B09F406CB0E94A602882309F4FECA09
:101BA0000E940000FBCA153029F40E8346E0B30101
:101BB00080E03BCF860D971DFC0100831F5FF8E29C
:101BC0008F16910409F0B2CF112309F4AFCF412F42
:101BD000B30180E00E94D905A9CFEE20B1F0112316
:101BE00029F0412FB30180E00E94D90587E892E0F7
:101BF0000E94100520E1E29EB0011124072E000C86
:101C0000880B990B0E94090212CFB8E28B1691043F
:101C100009F0ADCF112309F4AACFD9CF0F931F93A9
:101C2000CF93DF93009759F46115710541F4F0E00B
:101C3000E0E0CF01DF91CF911F910F9108958B01CB
:101C4000EC016EE070E081E090E00E945810FC0131
:101C5000892B69F380E883830115110571F01387DF
:101C6000028781E8838380918C0390918D03892B77
:101C700021F4F0938D03E0938C032097D1F2D18768
:101C8000C08783818260838380918E0390918F03CC
:101C9000892B79F6F0938F03E0938E038091900364
:101CA00090919103892B29F6F0939103E09390038F
:101CB000C0CFB0E0A0E0EFE5FEE00C945212AE0120
:101CC000495F5F4FDA016D917D91AD010CE813E042
:101CD000F80182819381DC0113962C91139728607F
:101CE00013962C930E947E0ED8011296ED91FC91D2
:101CF0002381277F2383E4E00C946E12ABE0B0E0F5
:101D0000E4E8FEE00C9444127C013B018A01FC01F2
:101D100017821682838181FFC8C1CE0101965C01C2
:101D2000F7019381F30193FD859193FF81913F0129
:101D3000882309F453C1853239F493FD859193FFCB
:101D400081913F01853229F4B70190E00E94B611DC
:101D5000E7CF912C212C312CFFE1F31538F08B3299
:101D600011F190F4803209F1833229F137FC3CC043
:101D700020ED280F2A3050F536FE20C08AE0989ECC
:101D8000200D1124922E06C08D3291F0803371F710
:101D9000689430F8F30193FD859193FF81913F01A1
:101DA0008111DACF21C0689431F8689432F8F2CF0B
:101DB000689433F8EFCF689434F8ECCFEAE02E9EC5
:101DC000200D1124222E689435F8E4CF8E3229F4A8
:101DD00036FC04C1689436F8DDCF8C3619F468946B
:101DE00037F8D8CF8836B1F2982F9F7D955493302D
:101DF000E0F08336A1F18337C1F1833509F063C088
:101E00002801F2E04F0E511CF801C080D180692DED
:101E100070E036FC02C06FEF7FEFC6010E9499119F
:101E20004C01689437F882010AC00C5F1F4FFFE332
:101E3000F98388248394912C6501E89437F833FE64
:101E40002DC0522C8114910471F5552009F468CFEE
:101E5000B70180E290E00E94B6115A94F6CFF801E3
:101E6000808189830E5F1F4FE4CF2801F2E04F0E7F
:101E7000511CF801C080D180692D70E036FC02C091
:101E80006FEF7FEFC6010E94AB114C018201D5CFED
:101E9000B70180E290E00E94B6112A942814190438
:101EA00009F0B0F7CECFF60137FC859137FE81916E
:101EB0006F01B70190E00E94B61151105A94F1E001
:101EC0008F1A9108BFCF843619F0893609F077C090
:101ED000F80137FE6BC060817181828193810C5F54
:101EE0001F4FF32DFF763F2E97FF09C090958095E9
:101EF000709561957F4F8F4F9F4F689437F82AE018
:101F000030E0A5010E94E611C82ECA188C2C432C83
:101F100036FE0CC0E89440F8C91440F434FE05C005
:101F200032FC03C0F32DFE7E4F2E892C44FE95C05B
:101F3000FE01EC0DF11D8081803309F087C0242D56
:101F4000297E422E842D8870582E43FC95C040FE79
:101F50008FC09C2C821418F42C0C922C981844FEE0
:101F600091C0B70180E390E00E94B61142FE09C023
:101F700088E790E041FE02C088E590E0B7010E944A
:101F8000B611C91408F48AC0CA94D12C9FEFC91A9B
:101F9000D90ACA0CDB1CF60182916F01B70190E0EF
:101FA0000E94B611AC14BD04B1F74FCF60817181AE
:101FB000072E000C880B990B0E5F1F4F92CFD32C6E
:101FC000E894D4F82AE030E0853739F1232D297FD1
:101FD000D22E8F3601F148F48835A9F0F7018681B9
:101FE00097812B96E2E10C946012803749F0883794
:101FF000A9F7D4FE02C06894D2F820E130E00DC009
:102000006894D4F8F6CF34FE03C0822F8660D82EB1
:1020100020E132E002C028E030E0F801D7FE0FC036
:1020200060817181828193810C5F1F4FA5010E94A5
:10203000E611C82ECA183D2CE89437F867CF6081A6
:10204000718190E080E00E5F1F4FF0CF42FC02C034
:10205000839478CF8394839475CF842D867809F404
:1020600071CFF6CFB70180E290E00E94B611839461
:102070008214C0F3512C73CF522C5818821408F4D8
:102080006ECFF8CF842D867809F47BCF8BE241FEAA
:1020900080E247FC8DE2B70190E071CFB70180E3A9
:1020A00090E00E94B6119A946CCF8FEF9FEF99CF7A
:1020B0000F931F93CF93DF93869F8001879F100D0F
:1020C000969F100D1124C8010E947410EC01009716
:1020D00029F0A80170E060E00E94A411CE01DF9118
:1020E000CF911F910F9108950F931F93CF93DF937B
:1020F0008230910510F482E090E0E0919403F09139
:10210000950330E020E0B0E0A0E0309799F421158D
:10211000310509F44AC0281B390B24303105D8F5A4
:102120008A819B816115710589F1FB01938382830B
:10213000FE0111C040815181028113814817590766
:10214000E0F04817590799F4109761F012960C9334
:10215000129713961C933296CF01DF91CF911F9166
:102160000F9108950093940310939503F4CF2115D4
:10217000310551F04217530738F0A901DB019A01EC
:10218000BD01DF01F801C1CFEF01F9CF90939503B5
:1021900080939403CDCFFE01E20FF31F81939193BF
:1021A0002250310939832883D7CF2091920330916F
:1021B0009303232B41F420910301309104013093C8
:1021C0009303209392032091010130910201211584
:1021D000310541F42DB73EB74091050150910601FC
:1021E000241B350BE0919203F0919303E217F30760
:1021F000A0F42E1B3F0B2817390778F0AC014E5F77
:102200005F4F2417350748F04E0F5F1F509393031D
:1022100040939203819391939FCFF0E0E0E09CCFB5
:10222000CF93DF930097E9F0FC013297138212827B
:10223000A0919403B0919503ED0130E020E0109758
:10224000A1F420813181820F931F2091920330915C
:1022500093032817390709F061C0F0939303E093C3
:102260009203DF91CF910895EA01CE17DF07E8F5D9
:102270004A815B819E0141155105B1F7E901FB835C
:10228000EA8349915991C40FD51FEC17FD0761F4FA
:10229000808191810296840F951FE901998388833B
:1022A000828193819B838A83F0E0E0E012968D9196
:1022B0009C9113970097B9F52D913C911197CD0101
:1022C0000296820F931F2091920330919303281757
:1022D000390739F6309751F510929503109294030F
:1022E000B0939303A0939203BCCFD383C283408166
:1022F0005181840F951FC817D90761F44E5F5F4F56
:1023000088819981480F591F518340838A819B811D
:10231000938382832115310509F0B0CFF0939503A3
:10232000E09394039ECFFD01DC01C0CF13821282A3
:10233000D7CFFC010590615070400110D8F780950F
:1023400090958E0F9F1F0895DC0101C06D93415041
:102350005040E0F70895FC01615070400190011079
:10236000D8F7809590958E0F9F1F08950F931F9318
:10237000CF93DF93182F092FEB018B8181FD09C0CB
:102380001FEF0FEF812F902FDF91CF911F910F91B2
:10239000089582FF14C02E813F818C819D81281772
:1023A00039073CF4E881F981CF010196998388834C
:1023B00010838E819F8101969F838E83E3CFE88572
:1023C000F985812F0995892BA1F3DACFFA01AA2784
:1023D000283051F1203181F1E8946F936E7F6E5F68
:1023E0007F4F8F4F9F4FAF4FB1E03ED0B4E03CD016
:1023F000670F781F891F9A1FA11D680F791F8A1FF9
:10240000911DA11D6A0F711D811D911DA11D20D05F
:1024100009F468943F912AE0269F11243019305D19
:102420003193DEF6CF010895462F4770405D41930A
:10243000B3E00FD0C9F7F6CF462F4F70405D4A3357
:1024400018F0495D31FD4052419302D0A9F7EACF1F
:10245000B4E0A6959795879577956795BA95C9F74E
:1024600000976105710508959B01AC010A2E069441
:102470005795479537952795BA95C9F7620F731FFA
:10248000841F951FA01D08952F923F924F925F9237
:102490006F927F928F929F92AF92BF92CF92DF9274
:1024A000EF92FF920F931F93CF93DF93CDB7DEB7D9
:1024B000CA1BDB0B0FB6F894DEBF0FBECDBF09946D
:1024C0002A88398848885F846E847D848C849B84C4
:1024D000AA84B984C884DF80EE80FD800C811B81D2
:1024E000AA81B981CE0FD11D0FB6F894DEBF0FBE01
:1024F000CDBFED01089597FB072E16F4009407D089
:1025000077FD09D00E94F01207FC05D03EF49095AB
:1025100081959F4F0895709561957F4F0895A1E231
:102520001A2EAA1BBB1BFD010DC0AA1FBB1FEE1F4D
:10253000FF1FA217B307E407F50720F0A21BB30B98
:10254000E40BF50B661F771F881F991F1A9469F714
:1025500060957095809590959B01AC01BD01CF0170
:102560000895002E083090F0982F872F762F652F32
:10257000542F432F322F22270850F4CF220F331F1E
:10258000441F551F661F771F881F991F0A95B2F7B2
:10259000002D089597FD1094002E083098F00850F3
:1025A000232F342F452F562F672F782F892F912DCA
:1025B000F4CF159497958795779567955795479597
:1025C000379527950A95AAF71124002D08952A0D0D
:1025D0003B1D4C1D5D1D6E1D7F1D801F911F0895AD
:1025E000AA1BBB1B51E107C0AA1FBB1FA617B70739
:1025F00010F0A61BB70B881F991F5A95A9F7809555
:102600009095BC01CD010895EE0FFF1F0590F49148
:10261000E02D0994FB01DC0102C001900D924150B4
:0A2620005040D8F70895F894FFCF5A
:10262A001900009603800008150000001F000B0027
:10263A000017000017000013000016000233000004
:10264A003800003800001600000B00002000000FC0
:10265A0000000F00003700000600000F0000120003
:10266A00001800000700003800001B0000090000E5
:10267A001F00003800001700000B000015000008BA
:10268A0000000400000700001600003800001E00C9
:10269A000025000026000023000038000028000062
:1026AA00000000DC023C02690229039A0278028CCB
:1026BA00020D0A0063683A200020733A2000206164
:1026CA003A200020703A20007374617274696E6750
:1026DA00207363616E2E2E2E007374617274696E9C
:1026EA0067206368616E6E656C207377656570003C
:1026FA00666F756E64207061636B6574202F772036
:10270A0076616C6964206372632E2E2E20007061DC
:10271A00796C6F6164206C656E67746820697320D8
:10272A00007061796C6F616420697320656D7074E3
:10273A00792E207363616E6E696E672E2E2E006687
:10274A006F756E64204D53206D6F75736500666FEB
:10275A00756E64204D5320656E637279707465647A
:10276A00206D6F75736500666F756E64204C6F67B8
:10277A006974656368206D6F75736500737461723F
:10278A0074696E672061747461636B007061796C3F
:10279A006F6164207479706520697320696E6A6557
:1027AA00637461626C650077616974696E6700734E
:1027BA00656E64696E672068696420636F64653A50
:0227CA002000ED
:00000001FF
